:020000040800F2
:10000000F81300207D020008BB1700082F14000819
:10001000B9170008B5030008AD1F00080000000074
:100020000000000000000000000000009D0100082A
:10003000B703000800000000F90100086D1A00086D
:10004000970200089702000897020008970200082C
:10005000970200089702000897020008970200081C
:10006000970200089702000897020008970200080C
:1000700097020008970200089702000897020008FC
:1000800097020008970200089702000897020008EC
:10009000970200089702000897020008E70300088B
:1000A00097020008970200089702000897020008CC
:1000B00097020008970200089702000897020008BC
:1000C00097020008970200089702000897020008AC
:1000D000970200089702000897020008970200089C
:1000E000B903000897020008970200089702000869
:1000F000970200089702000897020008970200087C
:10010000970200089702000897020008970200086B
:10011000970200089702000897020008970200085B
:10012000970200089702000897020008970200084B
:10013000970200089702000897020008970200083B
:10014000970200089702000897020008970200082B
:10015000970200089702000897020008970200081B
:10016000970200089702000897020008970200080B
:10017000970200089702000800000000000000003D
:100180009702000897020008DFF80CD000F000F991
:100190000048004705210008F81300202C4B19687F
:1001A000086800F05AB880F30988BFF36F8F4FF0EA
:1001B000000080F3118870470000000008480068C4
:1001C000006880F308884FF0000080F3148862B65E
:1001D00061B6BFF34F8FBFF36F8F00DF00BF00BF6B
:1001E00008ED00E0DFF80C00016841F470010160E7
:1001F000704700BF88ED00E0EFF30980BFF36F8F19
:10020000134B1A681EF0100F08BF20ED108A20E96A
:10021000F04F106009B44FF0500080F31188BFF325
:100220004F8FBFF36F8F02F043FB4FF0000080F35E
:10023000118809BC1968086800F014B81EF0100F86
:1002400008BF00F014B880F30988BFF36F8F7047C0
:1002500018000020EFF30580704730C8B0E8C04FA9
:10026000FFF7A1BF30C8B0E8C04FFFF7E7BFB0EC61
:10027000088AB0EC08CAFFF7E6BF000006488047CE
:1002800006480047FEE7FEE7FEE7FEE7FEE7FEE77B
:10029000FEE7FEE7FEE7FEE7F51A00088901000821
:1002A0002DE9F05F0546002092469B4688460646AB
:1002B000814640241BE0284641464746224600F03E
:1002C00056F853465A46C01A914110D31146184663
:1002D000224600F03DF82D1A67EB01084F462246F2
:1002E0000120002100F034F817EB00094E41201ED8
:1002F000A4F10104DFDC484631462A46434600F0BB
:1003000000B830BCBDE8C09F40EA01039B0703D0A2
:1003100009E008C9121F08C0042AFAD203E011F844
:10032000013B00F8013B521EF9D27047D2B201E006
:1003300000F8012B491EFBD270470022F6E710B5EA
:1003400013460A4604461946FFF7F0FF204610BD43
:10035000202A04DB203A00FA02F100207047914085
:10036000C2F1200320FA03F3194390407047202A7A
:1003700004DB203A21FA02F00021704721FA02F34F
:10038000D040C2F120029140084319467047000056
:10039000064C074D06E0E06840F0010394E80700D2
:1003A00098471034AC42F6D3FFF7F2FE1C2D00083C
:1003B0003C2D0008FEE7704710B54FF4806000F058
:1003C00023F84FF4006000F01FF84FF4005000F0E5
:1003D0001BF84FF4804000F017F8BDE810404FF4D0
:1003E000004000F011B810B5202000F00DF84020BA
:1003F00000F00AF8802000F007F8BDE810404FF444
:10040000807000F001B87047044910B50A680242D4
:1004100002D00860FFF7F7FF10BD00001404014090
:100420002DE9F84FDFF898B100234FF0010C4FF0A1
:10043000030A4FF00F090BF1040EB9E00CFA03F4B4
:10044000224070D04D68022D01D0122D0ED1DD0852
:1004500000EB8508D8F820505E07F70E09FA07F67A
:10046000B5430E69BE402E43C8F8206007685E00A1
:1004700091F804800AFA06F508F00308AF4308FA79
:1004800006F848EA0708C0F800804F68012F05D039
:10049000022F03D0112F01D0122F13D1D0F80880D2
:1004A000CF6828EA0508B74047EA08078760D0F810
:1004B00004800F7928EA0408C7F300179F4047EA31
:1004C00008074760D1F804806FEA0807BF0706D124
:1004D000C76AA743C8F3C0049C403C43C462C468D5
:1004E000AC438D68B5402543C5604C68E4005ED5DB
:1004F000344C256E45F001052566246E23F0030576
:1005000004F001040094304C2E19B4689D072F0F9D
:1005100009FA07F5AC43B0F1904F05D02B4DA84236
:1005200004D101251CE042E0002519E0284DA84235
:1005300001D1022514E0274DA84201D103250FE087
:10054000254DA84201D104250AE0244DA84201D13D
:10055000052505E0224DA84201D1062500E007252A
:10056000BD402543B560DBF800405D464E689443CE
:10057000F60300D514432C60DEF8004075464E6843
:100580009443B60300D514432C600D4D08352C68F8
:100590004E689443F60200D514432C60084D0C3588
:1005A0002C684E689443B60200D514432C605B1C43
:1005B0000A6832FA03F57FF441AF00F013B8000087
:1005C0000004014000100240000001400004004807
:1005D00000080048000C00480010004800140048C3
:1005E0000018004818BCBDE8E08F0AB1816170476F
:1005F0008162704701488068704700000800002051
:1006000002488168426811448160704708000020F8
:1006100010B50024032000F075F80F2000F008F852
:1006200008B1012401E000F025F8204610BD0000CB
:1006300070B50E4E05460024706898B14FF47A717B
:10064000B1FBF0F00A490968B1FBF0F000F01AFEC6
:1006500040B9102D06D200222946501E00F032F873
:10066000356000E00124204670BD00000800002035
:10067000140000200B4882B0016E41F001010166B8
:10068000016E01F001010091816D41F080518165A1
:10069000806D002200F0805000900F21901E02B06B
:1006A00000F010B800100240002809DB00F01F0223
:1006B000012191404009800000F1E020C0F80011C4
:1006C00070470000F0B40E4B1B680C46C3F30223C6
:1006D000C3F10705042D00D90425191D072901D2EE
:1006E000002300E0DB1E012606FA05F1491E214029
:1006F00099409E40761E16403143F0BC01F068BC24
:100700000CED00E0064900F0070208684FF6FF0311
:10071000184040EA0220034A104308607047000076
:100720000CED00E00000FA051649B0F5007F0868FE
:10073000C0F3412009D0022805D0086820F4C06029
:1007400040F480600860002070470128FBD00868F2
:1007500020F4C06040F4007008600B48322200684A
:1007600050430A4AB0FBF2F0401C00E0401E4A69C8
:10077000520501D50028F9D148694005E3D5032089
:1007800070470000007000401400002040420F003D
:100790000248006800F4C06070470000007000402C
:1007A0002DE9F84F044600270088E54D3E46010537
:1007B00004F1200B1DD5606E78B1B0F5800F11D01B
:1007C000B0F5000F04D0B0F5400F22D001270FE0A4
:1007D000E86840F48030E8601BE00021201D00F054
:1007E000EDFF03E00021584601F07EF8070010D02D
:1007F0003E462088C00426D5A06EC0B1B0F1807FEF
:100800001AD0B0F1007F0DD0B0F1407F19D0012790
:1008100018E0D5F88800616E20F440000843C5F860
:100820008800E6E7E86840F48030E86009E00021ED
:10083000201D00F0C3FF03E00021584601F054F8EA
:100840000746F7B13E46206880033AD5A86D4FF0C1
:100850000008C00009D4A86D40F08050A865A86DBC
:100860004FF0010800F080500090DFF8D8A2DAF8CD
:10087000001041F48071CAF80010FFF7BBFE8146FA
:1008800010E0D5F88800A16E20F040700843C5F84C
:100890008800D8E7FFF7AEFEA0EB0900022801D9D7
:1008A000032705E0DAF80000C005F3D5002F7CD05F
:1008B0004FEA0706B8F1000F03D0A86D20F0805072
:1008C000A8652078C00707D0D5F88800A16B20F074
:1008D00003000843C5F888002078800707D5D5F8BD
:1008E0008800E16B20F00C000843C5F888002078F0
:1008F000400707D5D5F88800216C20F03000084368
:10090000C5F888002078000707D5D5F88800616C05
:1009100020F0C0000843C5F888002078C00607D53D
:10092000D5F88800A16C20F440700843C5F8880011
:100930002078800607D5D5F88800E16C20F4406067
:100940000843C5F888002088800507D5D5F88800B9
:10095000E16D20F440200843C5F888002088400558
:1009600007D5D5F88800216E20F440100843C5F85B
:1009700088002078400607D5D5F88800216D20F43E
:1009800040500843C5F888002078000607D5D5F800
:100990008800616D20F440400843C5F88800208835
:1009A000C00509D5D5F8880000E01CE0A16D20F451
:1009B00040300843C5F8880020884FF00067800465
:1009C0004FF080684FD5D5F88800E16E20F0406088
:1009D0000843C5F88800E06EB8423CD1E86840F4AE
:1009E0008010E8603FE0D5F8900010F4407015D01A
:1009F000D4F88410814211D0D5F89000D5F8901029
:100A000020F4407041F48031C5F89010D5F8901072
:100A100021F48031C5F89010C5F89000C00710D0BF
:100A2000FFF7E8FD074641F2883906E0FFF7E2FDEF
:100A3000C11B494501D903263CE7D5F89000800742
:100A4000F4D5D5F89000D4F8841020F44070084311
:100A5000C5F890002EE7404505D10121201D00F08A
:100A6000ADFE00B106462068000317D5D5F8880012
:100A7000216F20F040600843C5F88800206FB8421D
:100A800004D1E86840F48010E86007E0404505D1F3
:100A90000121201D00F092FE00B1064620684003AF
:100AA00017D5D5F88800616F20F040600843C5F87D
:100AB0008800606FB84204D1E86840F48010E860B4
:100AC00007E0404505D10121201D00F077FE00B16F
:100AD0000646208840041AD5D5F88800A16F20F07A
:100AE00040500843C5F88800A06FB0F1805F03D084
:100AF000B0F1005F05D00AE00221201D00F05EFE8B
:100B000003E00221584600F0EFFE00B106462088BF
:100B1000000407D5D5F88800E16F20F08040084335
:100B2000C5F888002068C00307D555F8880FD4F8A9
:100B3000801020F0004008432860304600F004B8E0
:100B4000001002400070004018BCBDE8E08F0000BB
:100B50002DE9F0470F46050058D0404E306800F0B0
:100B60000700B84209D2306820F0070038433060EF
:100B7000306800F00700B84248D12878384CC007E8
:100B80002CD06868032811D0022812D0216898B1AF
:100B9000490500293ADAA16821F003010143A16067
:100BA000FFF728FD804641F2883910E0216889016D
:100BB000EFE721688903ECE78907EAE7FFF71AFD09
:100BC000A0EB0801494502D90320BDE8F087A068E1
:100BD000696800F00C00B0EB810FEFD12878800736
:100BE00005D5A068A96820F0F0000843A06030682F
:100BF00000F00700B8420BD9306820F007003843F6
:100C00003060306800F00700B84201D00120DCE716
:100C10002878400705D5A068E96820F4E06008431B
:100C2000A0602878000706D5A068296920F46050E4
:100C300040EAC100A06000F03FF8A168094AC1F392
:100C40000311515C01F01F01C840074908600748C3
:100C50000068BDE8F047FFF7EBBC00000020024051
:100C600000100240C42C00081400002008000020DE
:100C70000548064900688968054AC1F30221515CAC
:100C800001F01F01C840704714000020001002400E
:100C9000042D00080548064900688968054AC1F323
:100CA000C221515C01F01F01C840704714000020B0
:100CB00000100240042D000870B525490023184695
:100CC0008A68CC6812F00C0204F00306214C4FEA4B
:100CD000640509D00C2A05D0042A32D0082A00D194
:100CE000284670BD012E10D10B681B0704D4D1F823
:100CF0009430C3F3032302E00B68C3F30313164ECF
:100D000056F82330DAB10C2AEBD1C86800F00300A2
:100D1000022818D0032818D01846CA68CB68C2F336
:100D20000212C3F306234343521CB3FBF2F2C8681A
:100D3000C0F34160401C4000B2FBF0F070BD1846AB
:100D400070BD204670BD2046E7E72846E5E7000075
:100D5000001002400024F400D42C00082DE9F843D0
:100D600004006FD0FE4DA86800F00C06E86800F0A3
:100D700003072078C00664D576B10C2E01D1012F6F
:100D80000AD0A069002828687AD040F001002860C5
:100D9000FFF730FC80465DE02868800702D5A06937
:100DA0000028DED0216A2868000703D5286800F0F3
:100DB000F00004E0D5F89400F02202EA101081421D
:100DC00016D9084600F014FE00283BD1286840F0F0
:100DD000080028602868216A20F0F0000843286095
:100DE0006868E16920F47F4040EA0120686016E00D
:100DF000286840F0080028602868216A20F0F00088
:100E0000084328606868E16920F47F4040EA0120D7
:100E1000686026B9206A00F0EBFD0028D5D1FFF705
:100E20004BFFA968CF4AC1F30311515C01F01F01C8
:100E3000C840CD490860CD480068FFF7F9FB00289D
:100E40007ED12EE0CAE000BFFFF7D4FBA0EB080084
:100E5000022876D828688007F6D5286840F0080070
:100E600028602868216A20F0F0000843286068683C
:100E7000E16920F47F4040EA0120686011E0FFE76B
:100E800020F001002860FFF7B5FB804606E000BFB8
:100E9000FFF7B0FBA0EB08000228DAD8286880072B
:100EA000F6D42078C00740D0082E18D00C2E01D1DF
:100EB000032F14D06068B0F5803F17D0B0F5A02F95
:100EC000286817D020F480302860286820F480201B
:100ED00028606068E0B1FFF78DFB804614E0286869
:100EE000800322D56068002878D01EE0286840F48E
:100EF0008030EDE740F480202860F7E7FFF77AFBC9
:100F0000A0EB08006428A4D828688003F6D50CE07C
:100F1000FFF770FB804605E0FFF76CFBA0EB0800D5
:100F2000642896D828688003F6D4207880073BD5BB
:100F3000042E11D00C2E01D1022F0DD0E06801E05B
:100F400092E1F1E0002828681ED040F4807028600B
:100F5000FFF750FB07460CE0286840050CD5E06819
:100F60000028C1D008E000BFFFF744FBC01B0228E7
:100F700093D828684005F7D56868217C20F0F850A0
:100F800040EA016068600FE020F480702860FFF79D
:100F900031FB074605E000BFFFF72CFBC01B022812
:100FA000B1D828684005F7D42078000729D56069B2
:100FB0000028D5F8940012D040F00100C5F8940044
:100FC000FFF718FB074604E0FFF714FBC01B0228DD
:100FD00099D8D5F894008007F6D512E000E120F00A
:100FE0000100C5F89400FFF705FB074605E000BFC8
:100FF000FFF700FBC01B022885D8D5F894008007B6
:10100000F6D42078400766D5A86D0027C00008D424
:10101000A86D40F08050A865A86D012700F08050B1
:10102000009053480168C90512D40168814641F413
:1010300080710160FFF7DEFA804605E0FFF7DAFA1B
:10104000A0EB080002286FD8D9F80000C005F5D53C
:10105000A068012816D00528D5F8900017D020F0F8
:101060000100C5F89000D5F8900020F0040000BF02
:10107000C5F89000A06841F28839C0B1FFF7BAFA0C
:1010800080460FE0D5F8900040F00100F0E740F016
:101090000400C5F89000F5E7FFF7ACFAA0EB0801F3
:1010A000494541D8D5F890008007F5D50EE0FFF707
:1010B000A1FA804606E000BFFFF79CFAA0EB08010A
:1010C000494531D8D5F890008007F5D41FB1A86DF7
:1010D00020F08050A865A06A38B302280AD00C2EF0
:1010E0007ED0286820F080702860286810F0205F8B
:1010F00077D0AAE0E868E26A00F0030191422BD1C0
:10110000216B00F0700209011039914224D1626B09
:1011100000F4FE41B1EB022F1ED1A26B00F40031AE
:10112000072A03D0012202E09DE089E000229142DB
:1011300012D1A18F00F4C00249084905A1F50011A0
:10114000914209D194F8401000F0C0604908490666
:10115000A1F1007181425CD00C2E41D0286809E0D9
:1011600000100240C42C00081400002008000020D9
:101170000070004040017ED42868C0007BD42868FD
:1011800020F080702860FFF735FA064605E000BFC2
:10119000FFF730FA801B022865D828688001F7D451
:1011A000D4E90B016FF00F0202EB01110843A18F8C
:1011B0005204490802EB4151626B41EA02210843A3
:1011C00094F840104FF07E42490802EB4161084319
:1011D000A16B090940EA4140E968284A114001E051
:1011E00049E02EE00843E860286840F080702860FD
:1011F000E86840F08070E860FFF7FCF9044604E01E
:10120000FFF7F8F9001B02282DD828688001F7D5D0
:101210002FE0286880012CD4286840F08070286076
:10122000E86840F08070E860FFF7E4F9044604E005
:10123000FFF7E0F9001B022815D828688001F7D5D0
:1012400017E0E86820F00300E860E8680C4908400F
:10125000E860FFF7CFF9044608E000BFFFF7CAF9DE
:10126000001B022802D90320BDE8F883286880010A
:10127000F4D40020F8E70120F6E700008C809DF907
:10128000FFFFEEFE10B5401EB0F1807F01D30120BC
:1012900010BD4FF0E02460610F21601700F098FE50
:1012A0000020A06107202061002010BD10B50400BF
:1012B00002D0606F10B107E0012010BD002084F85B
:1012C0007000204600F026F824206067206801683E
:1012D00021F001010160204600F0CCFC0128ECD097
:1012E000606A10B1204600F035FC2068416821F4A6
:1012F000904141602068816821F02A018160206866
:10130000016841F0010101602046BDE8104000F095
:1013100085BC000010B586B0044614216846FFF76E
:101320000CF81249206888421ED11148016E41F420
:1013300080410166016E01F480410591C16C41F06C
:101340000201C164C06C694600F002000590C02033
:1013500000900220019000200290032003900720BB
:1013600004900448FFF75CF806B010BD0038014057
:1013700000100240000400482DE9F8430446406F85
:101380001F4616460D4620284FD1CDB1C6B194F860
:101390007000012849D0012084F870004FF0000847
:1013A000C4F87C8021206067FFF724F9A4F850601E
:1013B0008146A4F85260A068B0F5805F03D004E0D5
:1013C0000120BDE8F883206928B12E465FF00005B2
:1013D00084F8708010E00026FAE78021204600F0B3
:1013E00093FDB8B9C6B116F8010B21680885B4F8A9
:1013F0005200401EA4F85200B4F852004B464FF081
:10140000000200970028E8D14FF04001204600F08C
:101410007BFD30B10320D4E735F8020BC0F30800A0
:10142000E3E7202060670020CBE70220C9E7FEE762
:101430002DE9F04F87B014216846FEF77EFFC948BA
:10144000C16C41F01001C164C16C01F01001059143
:10145000C16C41F00401C164C16C01F0040105914B
:10146000C16C41F08001C164C16C01F08001059143
:10147000C16C41F00101C164C16C01F00101059131
:10148000C16C41F00201C164C16C01F0020105911F
:10149000C16C41F00801C164C06CDFF8CC9200F06F
:1014A0000800059000224FF48A714846FFF79DF826
:1014B000002248F204114FF09040FFF796F8002206
:1014C0004FF21401A948FFF790F8002241F2810180
:1014D000A748FFF78AF801225103A548FFF785F8CE
:1014E00000224FF41071A348FFF77FF8012220215A
:1014F0009E48FFF77AF8012211464846FFF775F833
:1015000040F21510009001260024CDE901646946DF
:1015100048460394FEF784FF974F6A20CDE9000701
:10152000694602944846FEF77BFF7003009093489B
:10153000CDE9010469468F48FEF772FF0325009547
:10154000CDE9015469468E48FEF76AFF3F204FF00F
:101550000B08CDE90008694602948648FEF760FF53
:101560000220CDE9005002940820CDE903506946DD
:101570004FF09040FEF754FF48F204100090CDE980
:10158000016469464FF090400394FEF749FF08203C
:1015900000900220CDE90104CDE9034669464FF0F1
:1015A0009040FEF73DFF1020CDE900086946029407
:1015B0004FF09040FEF734FFE020009001A9022098
:1015C00081E831000520049069464FF09040FEF715
:1015D00027FF0096CDE9017469466448FEF720FFB5
:1015E0000220CDE90008694602946048FEF718FF22
:1015F0004FF234000090CDE9016469465B480394E2
:10160000FEF70EFF4FF4207000900220CDE9010498
:101610000620CDE9034069464846FEF701FF4FF436
:101620007C40009001A9022081E831000A2004904A
:1016300069464846FEF7F4FEA8024FF01208CDE9CD
:101640000008CDE902654FF004096946CDF8109015
:101650004648FEF7E5FE4FF4407A01AA02204FF01B
:10166000070BCDF800A082E8310869464048FEF734
:10167000D7FE4CF60440CDE90007694602943C4889
:10168000FEF7CEFE43F281000090CDE90164694689
:1016900037480394FEF7C4FE4FF410700090CDE974
:1016A0000164694633480394FEF7BAFEE801CDE9C8
:1016B0000007694602942F48FEF7B2FE7002CDE99A
:1016C000000469464FF090400294FEF7A9FE4FF4E3
:1016D000E05701A90220009781E831000A20049018
:1016E00069464FF09040FEF79BFE01A9022000974B
:1016F00081E831000620049069461E48FEF790FEFE
:10170000022001A9009081E831000520049069467B
:101710001748FEF785FE7820009001AA022082E893
:10172000310869461248FEF77BFECDE90265CDE936
:1017300000A869460D48CDF81090FEF771FE002212
:1017400005211720FEF7BEFF1720FEF7ADFF002290
:1017500005212820FEF7B6FF2820FEF7A5FF07B0D9
:1017600000F010B8001002400010004800040048CB
:10177000000C004800080048000011100000211073
:10178000001C004830BCBDE8C08F00000948084973
:1017900001604FF4E1314160002181600C22C160A1
:1017A000C0E904128161C16101624162FFF77EBD3F
:1017B000003801407C000020FEE770472DE9F04131
:1017C000444C05468846E0680026810728680DD00D
:1017D000E16801F00301814216D1A8B1E0686968AF
:1017E000C0F30210401C88420ED120E0012804D032
:1017F000022805D0032807D108E02168890701E005
:1018000021684905002907DB01265FE0216889037B
:1018100002D421684903F5E7E1686A686FF00F03B5
:1018200021F0730103EB021211430143E1602068D0
:1018300020F080602060FEF7DDFE074605E000BF77
:10184000FEF7D8FEC01B022837D820680001F7D465
:10185000B8F1000F18D0B8F1010F1ED0287D4FF05D
:101860007E41400801EB4060A96840EA01202169FF
:10187000194A114008432061206840F080602060D0
:10188000FEF7B8FE07461AE0A868E96800020909F1
:1018900040EA41402169114AEBE7288A1049400893
:1018A00001EB4050A96840EA012021690D4AE0E7B8
:1018B000FEF7A0FEC01B022801D9032606E020681F
:1018C0000001F5D52069A969084320613046BDE8CB
:1018D000F081000000100240FF80FFF9FF80FDFF53
:1018E0000000E0FFFF809FFF2DE9F0413D4C0646E0
:1018F0008846E0680025810730680DD0E16801F076
:101900000301814216D1A8B1E0687168C0F30210EA
:10191000401C88420ED120E0012804D0022805D0C6
:10192000032807D108E02168890701E021684905FB
:10193000002907DB012551E02168890302D42168D1
:101940004903F5E7E16872686FF00F0321F0730156
:1019500003EB021211430143E160206820F0805044
:101960002060FEF747FE074605E000BFFEF742FE97
:10197000C01B022829D820688000F7D4B8F1000FD6
:1019800015D0307C4FF07E41400801EB4060B168DB
:1019900040EA01206169144A1140084360612068EF
:1019A00040F080502060FEF725FE07460FE0B0684B
:1019B000F1680002090940EA414061690B4AEBE71E
:1019C000FEF718FEC01B022801D9032506E0206897
:1019D0008000F5D560697169084360612846BDE8FB
:1019E000F081000000100240FF80FFF9FF80FDFF42
:1019F000F8B51C4D06460024A86DC00002D5FEF7C0
:101A0000C7FE0DE0A86D40F08050A865A86D00F0FD
:101A100080500090FEF7BCFEA96D21F08051A965B1
:101A2000B0F5007F04D0802E07D94FF003040AE000
:101A3000802E08D9A02E01D804E001D1022402E0B2
:101A4000702E00D101240848016821F007012143CC
:101A50000160006800F00700A04201D00120F8BD3D
:101A60000020F8BD001002400020024010B5FEF733
:101A7000C7FD01F037F8012803D0BDE8104000F0A1
:101A8000BFBF10BD30B5B9B0442122A8FEF755FC48
:101A9000142133A8FEF751FC88216846FEF74DFC5F
:101AA000102001252290002428956020CDE92940AE
:101AB00002202821CDE92C05CDE92E510721CDE9C1
:101AC0003010329022A8FFF749F90F2033900320FD
:101AD000CDE934043694042133A83794FFF738F85D
:101AE000684600950E94FEF75BFE6802FEF71CFE4A
:101AF00039B030BD0D48016841F4700101600C48F7
:101B0000016841F001010160002181600268094B18
:101B10001A4002608214C260026822F480220260CD
:101B200081610249C00380390860704788ED00E098
:101B300000100240FFFFF6EA054641F288342946CC
:101B400003A000F035FA204600F02EFBF7E7000076
:101B50002573000090F82410C90706D001684A6870
:101B6000836A22F400321A434A6090F824108907ED
:101B700006D501684A68C36A22F480321A434A6073
:101B800090F82410490706D501684A68036B22F4CF
:101B900080221A434A6090F82410090706D501688C
:101BA0004A68436B22F400421A434A6090F82410BA
:101BB000C90606D501688A68836B22F480521A43ED
:101BC0008A6090F82410890606D501688A68C36B7C
:101BD00022F400521A438A6090F82410490611D565
:101BE00001684A68036C22F480121A434A60016C4F
:101BF000B1F5801F06D101684A68436C22F4C00227
:101C00001A434A6090F82410090606D501684A680C
:101C1000806C22F4002202434A607047F8B5002627
:101C20000446C667FEF7E6FC0546206800686FF0CC
:101C30007E47000708D52B4600224FF400112046AE
:101C4000009700F061F960B92068006840070AD584
:101C50002B4600224FF480012046009700F054F9F3
:101C600008B10320F8BD20206067A06784F8706089
:101C70000020F8BD2DE9F0410546016880682B6918
:101C8000EC6918436B69002723431843924A0B6899
:101C9000924C234003430B6028684168EB6821F4B1
:101CA0004051194341602968A869914201D02B6ACB
:101CB00018438B6823F4306303438B60884B296897
:101CC000884899420DD1D0F8880010F0030006D062
:101CD000012868D0022864D0032851D165E001248E
:101CE0004FE0814B99420BD1D0F8880010F00C00E6
:101CF00055D0042857D0082853D00C2840D154E0A0
:101D00007A4B99420BD1D0F8880010F0300046D0C1
:101D1000102848D0202844D0302831D145E0744BD9
:101D200099420BD1D0F8880010F0C00037D040287D
:101D300039D0802835D0C02822D136E06D4B994269
:101D40000ED1D0F8880010F4407028D0B0F5807F14
:101D500029D0B0F5007F24D0B0F5407F10D124E029
:101D600091420DD1D0F8880010F4406017D0B0F542
:101D7000806F18D0B0F5006F13D0B0F5406F14D05D
:101D800010245D4B00264FF40040914245D174B1C0
:101D9000022C0FD0042C0FD0082C18D10FE00024F7
:101DA000EFE70224EDE70424EBE70824E9E7FEF778
:101DB0005FFF03E0184602E0FEF77EFFA8B36A6803
:101DC00002EB4201814202D8B0EB023F01D9012768
:101DD0006FE0DFF828815CB1022C0CD0042C13D00A
:101DE000082CF4D150082105401846F1000105E007
:101DF000FEF73EFF0AE050084149F5E70023FEF7F1
:101E00004FFAA0F5407150E0FEF756FF6A68010EE8
:101E10000302500818187141F0E7E9694FF6EF78AE
:101E200081422FD1092CD2D200E042E0DFE804F059
:101E300006092005230505052600C8E7FEF718FF5B
:101E400001E0FEF727FF4100D5F8040001EB500147
:101E5000B1FBF0F080B2A0F110014145B7D84FF6C8
:101E6000F0710140C0F3420001432868C16020E0E6
:101E700024496868EAE7FEF71FFFE4E74FF4803182
:101E80006868E3E7092CA2D2DFE804F00609180528
:101E90001E05050520009AE7FEF7EAFE16E0FEF7AC
:101EA000F9FE13E080B2A0F1100141458FD82968F6
:101EB000C8602E6638466E66BDE8F081686803EB40
:101EC0005001B1FBF0F0EDE7FEF7F6FE696800EBBC
:101ED0005100B0FBF1F0E5E700800040F369FFEF4F
:101EE000003801400010024000440040004800401B
:101EF000004C0040005000400024F400FFFC0F00A4
:101F0000000024F40048E8012DE9F0479A461746FE
:101F10000E4604464FF000094FF02008089D39E0B6
:101F2000681C37D0FEF766FBA0EB0A00A84222D857
:101F30000DB32068016849072CD5C069C04300056E
:101F400028D421684FF4006008622068016821F4F9
:101F5000D07101602068816821F001018160C4F8BE
:101F60007480C4F87880C4F87C8000BF84F87090D6
:101F70000320BDE8F0872068016821F4D07101607A
:101F80002068816821F001018160C4F87480C4F880
:101F90007880EBE72068C06936EA000004D00020B2
:101FA000B842BDD00020E4E70120F9E7FEE70000D9
:101FB0000FB4054B10B503A9044A029800F027F8A6
:101FC00010BC5DF814FB0000ED2000087800002034
:101FD0000907090E002804DB00F1E02080F8001456
:101FE000704700F00F0000F1E02080F8141D7047EA
:101FF00002E008C8121F08C1002AFAD170477047D2
:10200000002001E001C1121F002AFBD170472DE919
:10201000F84F9946924688460546002706E025284F
:102020000AD051464A4690476D1C7F1C28780028EC
:10203000F5D1384600F056B8002315F8011F1846B0
:102040002E2915D115F8011F04232A290DD06FF070
:102050002F022978A1F13004092C09D800EB800067
:1020600002EB400008446D1CF3E758F8040B6D1CAC
:102070002A78002ADDD0632A07D0732A0FD01046B1
:1020800051464A4690477F1C2AE018F8042B8DF8E9
:10209000002000218DF801106E46012103E058F860
:1020A000046B4FF0FF315A074FF0000401D409E0F0
:1020B000641C84420BDA8C42FADB325D002AF7D1D1
:1020C00005E0641C8C42FCDB305D0028F9D127441C
:1020D00004E016F8010B51464A469047641EF8D2B8
:1020E0006D1CA3E718BCBDE8E08F000013B54FF6E8
:1020F000FF73012269460248FFF73EF900981CBDB4
:102100007C0000208EB0FEF783FAFFF7BBFCFFF7E0
:102110008FF9FFF73BFB0EA0FFF74AFF1C22114986
:102120006846FEF7F1F810A1684600F049F8144C33
:102130000C491C2220601C3107A8FEF7E5F811A10C
:1021400007A800F03DF8606000F035F8FEE70000F9
:102150000A0D4672656552544F53204C616220341B
:102160000A0D00008C2C00080A0D54687265616429
:1021700020312069732072756E6E696E670A0D00DA
:10218000000000200A0D54687265616420322069E5
:10219000732072756E6E696E670A0D00014600202D
:1021A000842900D0C81C704710B500B9012000F088
:1021B0001BFB002010BD10B500F03CFB002010BD43
:1021C0007FB50D4604464169B0F9080081B1A169A7
:1021D00071B1FFF7E3FFD4E905128DE80700D4E9F8
:1021E00000102B46226900F051FC039004B070BD32
:1021F000FFF7D4FF03A9CDE90001208A2B4682B264
:10220000D4E9001000F012FC012801D00020EDE715
:102210000398EBE72DE9F041184C0F460546666937
:102220002068001D00F01CFA38B9206890F82C10C6
:1022300001208840A1698143A161681C07D137B1A1
:102240002168BDE8F0410E48091D00F04DBA206834
:102250003544B5424560216805D2A068BDE8F0412B
:10226000091D00F029BA6068091D00F025FA206BED
:10227000854200D22563BDE8F081000018000020EF
:102280002C0400202DE9F041054600F039FA2E4CCF
:102290002069401C206120682C4F10B1E06940B3D8
:1022A0002DE025602069012829D1002606EB860053
:1022B00007EB800000F0F2F9761C072EF6D32348D6
:1022C0008C3000F0EBF92148A03000F0E7F91F480E
:1022D000B43000F0E3F91D48C83000F0DFF91B48C6
:1022E000DC3000F0DBF919488C3060601430A060FD
:1022F00005E02068E96AC06A884200D82560E06A83
:10230000401CE062E96A0120A26988401043A06194
:1023100001EB810007EB8000291D00F0E5F900F0DA
:102320000FFAE06900280CD02068E96AC06A884288
:1023300007D207494FF080500860BFF34F8FBFF3BB
:102340006F8FBDE8F08100001800002050030020CE
:1023500004ED00E010B5044690F8510058B1012892
:102360000CD002280FD0502080F31188BFF34F8F7C
:10237000BFF36F8FFEE7206B00F0F6F92046BDE853
:10238000104000F0F1B910BD0F4840F6B8314207D7
:1023900005D0C01D0C4A20F00700821A891A0B4A8A
:1023A00000230144C2E900030839103A21F0070173
:1023B00011604B600B600B1AC0E9001393604FF083
:1023C00000405360D060704740040020640000204B
:1023D000144E154CA6F1C8074FF08058DFF84C900A
:1023E00012E000BF00F08CF9F068C568281D00F00D
:1023F00037F92069401E2061E068401EE06000F06F
:102400009FF92846FFF7A6FFE0680028EAD1386860
:102410000128F9D9C9F80080BFF34F8FBFF36F8F40
:10242000F2E70000180400201800002004ED00E08E
:102430002DE9F0479A46DDE9098481466FF00303F0
:10244000206B03EB82021044089E20F007077807F8
:1024500007D0502080F31188BFF34F8FBFF36F8FE9
:10246000FEE7002561B1002023180A5C83F83420C0
:102470000A5C12B1401C1028F6D384F8435001E0E6
:1024800084F83450072E00D30626E662C4E91165AD
:10249000201D00F00EF904F1180000F00AF9246183
:1024A000C6F107006462A061E56484F850505246AA
:1024B0004946384600F0BEF82060B8F1000F01D060
:1024C000C8F80040BDE8F08730B5114900E011467A
:1024D0000A688242FBD34B685C18844203D140688F
:1024E00018444860084643681C18944209D1084CB7
:1024F000103C2468A24209D052681A4442600A681B
:1025000012680260814200D0086030BD0460F9E7C3
:102510006400002006484168096829B14168C9681B
:10252000C9684968016370474FF0FF31FAE700005E
:102530001800002008484068401C4FF0500080F30D
:10254000118804D0BFF34F8FBFF36F8FFEE7BFF347
:102550004F8FBFF36F8FFEE76C0000202DE9F04135
:102560000546002700F09CF9314E306808B9FFF7A6
:102570000BFFF06805424BD1C5B3083568070ED094
:1025800005F00700C0F108000544680707D0502097
:1025900080F31188BFF34F8FBFF36F8FFEE72DB32A
:1025A0007068854234D82248103001460C6801E03A
:1025B00020460C466168A94202D221680029F7D161
:1025C00031688C4224D00768216801606068083750
:1025D000411B10290FD96019420708D0502080F301
:1025E0001188BFF34F8FBFF36F8FFEE710E041609C
:1025F0006560FFF769FF61687068401A7060B268D3
:10260000904200D2B060F06801430020C4E90001AC
:1026100000F0DAFA780707D0502080F31188BFF372
:102620004F8FBFF36F8FFEE73846BDE8F0810000A3
:102630005400002010B5031F4FF080741C601B1F56
:1026400021F001011960191F044B0B6014390A6055
:10265000091F6FF0020244380A6010BD35250008DA
:10266000D0E9013201699A60D0E901235A604A68D1
:10267000824201D182684A60002202610868401EDD
:102680000860086870470000034B036003F15400C2
:102690000860802010607047FC00002000F10801F5
:1026A0004FF0FF32C0E90112C160016100210160F9
:1026B000704700210161704730B50B685A1C02D089
:1026C00000F1080202E0026904E02246546825682D
:1026D0009D42FAD953684B6099608A6051600861E5
:1026E0000168491C016030BD42684A6093688B6094
:1026F00093685960916008610168491C01607047E6
:10270000502080F31188BFF34F8FBFF36F8F0A49BA
:102710004868401C486001280CD10848006810F047
:10272000FF0F07D0502080F31188BFF34F8FBFF306
:102730006F8FFEE7704700006C00002004ED00E0A2
:102740000849486828B1401E486001D180F31188CB
:102750007047502080F31188BFF34F8FBFF36F8F06
:10276000FEE700006C00002070B5002827D0144D53
:10277000A0F108046168E868014207D1502080F3A5
:102780001188BFF34F8FBFF36F8FFEE722683AB116
:10279000502080F31188BFF34F8FBFF36F8FFEE798
:1027A0008143616000F07CF8606869680844686093
:1027B0002046FFF789FEBDE8704000F005BA70BD05
:1027C000540000204FF0E0200021016181610549A3
:1027D0004FF47A720968B1FBF2F1491E4161072199
:1027E000016170471400002010B5020014D00F489A
:1027F000806B38B1502080F31188BFF34F8FBFF347
:102800006F8FFEE700F04CF800211046FFF702FD45
:1028100000F0DAF9002807D105494FF08050086030
:10282000BFF34F8FBFF36F8F10BD00001800002063
:1028300004ED00E010B586B00024039405AA04A9B5
:1028400003A80494FFF720FFDDE903010094CDE91C
:10285000011000230EA11048059A00F017F90F4946
:102860000028486311D0502080F31188BFF34F8FA8
:10287000BFF36F8F4FF0FF3008630120C8614C61D8
:1028800006B0BDE8104000F041B806B010BD000031
:1028900049444C4500000000D123000818000020E6
:1028A0000248816B491C81637047000018000020BA
:1028B0001448816B11B101214162704700214162CE
:1028C0008169B1FA81F1C1F11F0101EB81020E4969
:1028D00051F822306BB101EB820101F108034A6823
:1028E00052684A609A4201D152684A60D1680160D8
:1028F0007047502080F31188BFF34F8FBFF36F8F65
:10290000FEE7000018000020500300201CB53748E7
:102910000168374A914207D1502080F31188BFF3F4
:102920004F8FBFF36F8FFEE700683149491E884221
:1029300007D1502080F31188BFF34F8FBFF36F8F03
:10294000FEE72C4908780190FF20087008788DF880
:1029500000009DF800009DF8002000F0F00090427B
:1029600007D0502080F31188BFF34F8FBFF36F8FD4
:10297000FEE79DF80000204B00F050001870072083
:10298000986005E09DF8002052008DF80020401E60
:102990009DF800201206F5D49860032807D0502037
:1029A00080F31188BFF34F8FBFF36F8FFEE74FF4B3
:1029B00040709860019808700C482030016841F41C
:1029C00070010160016841F070410160FFF7FAFE9B
:1029D00000205860FDF706FC0848016841F04041BE
:1029E0000160FDF7EBFB00201CBD000000ED00E0E6
:1029F00071C20F4100E400E06C00002034EF00E001
:102A000010B5502080F31188BFF34F8FBFF36F8F45
:102A100000F076F818B104494FF0805008600020AB
:102A200080F3118810BD000004ED00E02DE9FF5F88
:102A30008346DDE90E87994616468A469000FFF7E1
:102A40008DFD05001CD05420FFF788FD040014D034
:102A50000020256384F85100CDE90240CDE90087CC
:102A60004B46324651465846FFF7E2FC2046FFF7F8
:102A700009FC012004B000F006B82846FFF774FEF8
:102A80004FF0FF30F6E730BCBDE8C09FF0B585B031
:102A9000DDE90B640A9DA6B1DCB1542700972663DB
:102AA000022684F85160002604AFCDE90246CDE944
:102AB0000057FFF7BDFC2046FFF7E4FB049805B084
:102AC000F0BD502080F31188BFF34F8FBFF36F8F9D
:102AD000FEE7502080F31188BFF34F8FBFF36F8F55
:102AE000FEE700000548C16919B1806B18B10020EC
:102AF0007047012070470220704700001800002036
:102B00002DE9F0412E4C0027A06B40B1206A401CFB
:102B10002062606A00B101273846BDE8F08166692D
:102B2000761C666113D16068006838B1502080F36C
:102B30001188BFF34F8FBFF36F8FFEE76068A16806
:102B40006160A060A06A401CA062FFF7E3FC206BFC
:102B5000DFF87080864209D36068006880B16068E1
:102B6000C068C568686886420DD220632068C06A64
:102B700000EB800158F821000128CAD90127C8E7D5
:102B80004FF0FF30F1E7281DFFF76AFDA86A18B182
:102B900005F11800FFF764FDE86A0121A269814090
:102BA0001143A16100EB800108EB8100291DFFF7B3
:102BB0009BFDE86A2168C96A8842CDD30127CBE72B
:102BC00018000020500300202DE9F0472C4D002470
:102BD0002746A86B38B1FFF793FDA86B401EA8638A
:102BE000A86B40B146E0502080F31188BFF34F8FAF
:102BF000BFF36F8FFEE72969224E0120D1B3A6F102
:102C0000B40980463068E8B1F068C46804F118007F
:102C1000FFF726FD201DFFF723FDE06AAA6908FAE9
:102C200000F11143A96100EB800109EB8100211D36
:102C3000FFF75AFDE06A2968C96A8842E2D3C5F8FD
:102C40002480DFE70CB1FFF765FC2C6A44B14646EF
:102C5000FFF756FF00B16E62641EF9D100202862B2
:102C6000686A38B10849012738070860BFF34F8FF9
:102C7000BFF36F8FFFF764FD3846BDE8F0870000B3
:102C8000180000200404002004ED00E00C2D0008D2
:102C9000391B000800000000000000008000000058
:102CA0000000000000000000142D0008391B00087F
:102CB0000100000000000000800000000000000093
:102CC00000000000000000000000000001020304FA
:102CD00006070809A0860100400D0300801A0600BF
:102CE00000350C0040420F0080841E0000093D00AA
:102CF00000127A000024F40000366E010048E8015A
:102D0000006CDC02000000000102030474687265BC
:102D10006164310074687265616432003C2D0008A2
:102D2000000000207C000000F01F0008B82D000803
:102D30007C0000207C130000002000080000000040
:102D40000000000010000000010000000000000072
:102D500000093D000000000000000000000000002D
:102D60000000000000000000000000000000000063
:102D70000000000000000000000000000000000053
:102D80000000000000000000000000000000000043
:102D90000000000000000000000000000000000033
:102DA000000000000000000000000000AAAAAAAA7B
:082DB00000000000000000001B
:040000050800018965
:00000001FF
