:020000040800F2
:10000000001400207D0200084B180008CB140008E3
:1000100049180008B5030008FD2000080000000092
:100020000000000000000000000000009D0100082A
:10003000B703000800000000F9010008D91B000800
:10004000970200089702000897020008970200082C
:10005000970200089702000897020008970200081C
:10006000970200089702000897020008970200080C
:1000700097020008970200089702000897020008FC
:1000800097020008970200089702000897020008EC
:10009000970200089702000897020008E70300088B
:1000A00097020008970200089702000897020008CC
:1000B00097020008970200089702000897020008BC
:1000C00097020008970200089702000897020008AC
:1000D000970200089702000897020008970200089C
:1000E000B903000897020008970200089702000869
:1000F000970200089702000897020008970200087C
:10010000970200089702000897020008970200086B
:10011000970200089702000897020008970200085B
:10012000970200089702000897020008970200084B
:10013000970200089702000897020008970200083B
:10014000970200089702000897020008970200082B
:10015000970200089702000897020008970200081B
:10016000970200089702000897020008970200080B
:10017000970200089702000800000000000000003D
:100180009702000897020008DFF80CD000F000F991
:1001900000480047B9230008001400202C4B1968C0
:1001A000086800F05AB880F30988BFF36F8F4FF0EA
:1001B000000080F3118870470000000008480068C4
:1001C000006880F308884FF0000080F3148862B65E
:1001D00061B6BFF34F8FBFF36F8F00DF00BF00BF6B
:1001E00008ED00E0DFF80C00016841F470010160E7
:1001F000704700BF88ED00E0EFF30980BFF36F8F19
:10020000134B1A681EF0100F08BF20ED108A20E96A
:10021000F04F106009B44FF0500080F31188BFF325
:100220004F8FBFF36F8F02F05DFE4FF0000080F341
:10023000118809BC1968086800F014B81EF0100F86
:1002400008BF00F014B880F30988BFF36F8F7047C0
:1002500020000020EFF30580704730C8B0E8C04FA1
:10026000FFF7A1BF30C8B0E8C04FFFF7E7BFB0EC61
:10027000088AB0EC08CAFFF7E6BF000006488047CE
:1002800006480047FEE7FEE7FEE7FEE7FEE7FEE77B
:10029000FEE7FEE7FEE7FEE7611C000889010008B3
:1002A0002DE9F05F0546002092469B4688460646AB
:1002B000814640241BE0284641464746224600F03E
:1002C00056F853465A46C01A914110D31146184663
:1002D000224600F03DF82D1A67EB01084F462246F2
:1002E0000120002100F034F817EB00094E41201ED8
:1002F000A4F10104DFDC484631462A46434600F0BB
:1003000000B830BCBDE8C09F40EA01039B0703D0A2
:1003100009E008C9121F08C0042AFAD203E011F844
:10032000013B00F8013B521EF9D27047D2B201E006
:1003300000F8012B491EFBD270470022F6E710B5EA
:1003400013460A4604461946FFF7F0FF204610BD43
:10035000202A04DB203A00FA02F100207047914085
:10036000C2F1200320FA03F3194390407047202A7A
:1003700004DB203A21FA02F00021704721FA02F34F
:10038000D040C2F120029140084319467047000056
:10039000064C074D06E0E06840F0010394E80700D2
:1003A00098471034AC42F6D3FFF7F2FEC439000888
:1003B000E4390008FEE7704710B54FF4806000F0A4
:1003C00023F84FF4006000F01FF84FF4005000F0E5
:1003D0001BF84FF4804000F017F8BDE810404FF4D0
:1003E000004000F011B810B5202000F00DF84020BA
:1003F00000F00AF8802000F007F8BDE810404FF444
:10040000807000F001B87047044910B50A680242D4
:1004100002D00860FFF7F7FF10BD00001404014090
:100420002DE9F04FDFF83492002309F1040A01248A
:1004300003250AF1040B87B00F270BF1040E04E12A
:1004400004FA03F632407CD0D1F804C0BCF1010FAD
:1004500008D0BCF1020F05D0BCF1110F02D0BCF1E5
:10046000120F29D1D0F808C0CDF800C04FEA430CD4
:1004700005FA0CF8CDF80CC0DDF800C02CEA080C29
:10048000CDF800C0D1F80C80DDF80CC008FA0CF8EB
:10049000DDF800C048EA0C08C0F80880D0F80480F5
:1004A00091F804C028EA0608CCF3001C0CFA03FCFF
:1004B0004CEA080CC0F804C0D1F804806FEA080CBC
:1004C0005FEA8C7C09D1D0F82CC02CEA060CC8F36A
:1004D000C0069E4046EA0C06C662D0F80CC04FEA41
:1004E000430805FA08F62CEA060CCDF814800296AB
:1004F0008E6806FA08F646EA0C06C6604E68022EBA
:1005000001D0122E15D1DE0800EB86060396366A5E
:100510004FEA437C4FEADC6807FA08FC26EA0C063F
:10052000D1F810C00CFA08FC4CEA060C039EC6F881
:1005300020C00668DDF808C026EA0C0691F804C061
:1005400000E081E0DDF814800CF0030C0CFA08FCEC
:100550004CEA060CC0F800C04E68F60074D5404E58
:10056000D6F860C04CF0010CC6F860C0366E23F0BF
:10057000030C06F0010600963A4E66440296D6F841
:1005800008C09E074FEA167807FA08F62CEA060C10
:10059000B0F1904F04D0344EB04203D101261BE09D
:1005A000002619E0314EB04201D1022614E0304E4F
:1005B000B04201D103260FE02E4EB04201D10426F5
:1005C0000AE02D4EB04201D1052605E02B4EB04287
:1005D00001D1062600E0072606FA08F646EA0C06D0
:1005E000DDF808C0CCF80860D9F80060CC46D1F836
:1005F000048096435FEAC83800D51643CCF8006003
:10060000DAF80060D446D1F8048096435FEA88386F
:1006100000D51643CCF80060DBF80060DC46D1F86A
:10062000048096435FEAC82800D51643CCF80060E2
:10063000DEF80060F446D1F8048096435FEA88282B
:1006400000D51643CCF800605B1C0A6832FA03F64A
:100650007FF4F6AE07B000F013B8000000040140CC
:10066000001002400000014000040048000800485B
:10067000000C004800100048001400480018004812
:1006800030BCBDE8C08F0AB181617047816270479C
:10069000014880687047000010000020024881680F
:1006A00042681144816070471000002010B500249A
:1006B000032000F075F80F2000F008F808B10124BD
:1006C00001E000F025F8204610BD000070B50E4E88
:1006D00005460024706898B14FF47A71B1FBF0F0D0
:1006E0000A490968B1FBF0F000F01AFE40B9102D7C
:1006F00006D200222946501E00F032F8356000E094
:100700000124204670BD0000100000201C000020C5
:100710000B4882B0016E41F001010166016E01F0EB
:1007200001010091816D41F080518165806D002251
:1007300000F0805000900F21901E02B000F010B821
:1007400000100240002809DB00F01F020121914047
:100750004009800000F1E020C0F80011704700005F
:10076000F0B40E4B1B680C46C3F30223C3F107051C
:10077000042D00D90425191D072901D2002300E00A
:10078000DB1E012606FA05F1491E214099409E40D4
:10079000761E16403143F0BC01F0C2BC0CED00E007
:1007A000064900F0070208684FF6FF03184040EAC8
:1007B0000220034A10430860704700000CED00E07F
:1007C0000000FA051649B0F5007F0868C0F3412023
:1007D00009D0022805D0086820F4C06040F4806089
:1007E0000860002070470128FBD0086820F4C06032
:1007F00040F4007008600B483222006850430A4AF7
:10080000B0FBF2F0401C00E0401E4A69520501D5E1
:100810000028F9D148694005E3D50320704700005E
:10082000007000401C00002040420F000248006899
:1008300000F4C06070470000007000402DE9F84FE0
:10084000044600270088E54D3E46010504F1200BD3
:100850001DD5606E78B1B0F5800F11D0B0F5000FE6
:1008600004D0B0F5400F22D001270FE0E86840F433
:100870008030E8601BE00021201D00F0E7FF03E06E
:100880000021584601F078F8070010D03E46208835
:10089000C00426D5A06EC0B1B0F1807F1AD0B0F1EF
:1008A000007F0DD0B0F1407F19D0012718E0D5F8B6
:1008B0008800616E20F440000843C5F88800E6E730
:1008C000E86840F48030E86009E00021201D00F075
:1008D000BDFF03E00021584601F04EF80746F7B18E
:1008E0003E46206880033AD5A86D4FF00008C0004E
:1008F00009D4A86D40F08050A865A86D4FF001089C
:1009000000F080500090DFF8D8A2DAF8001041F42F
:100910008071CAF80010FFF7BBFE814610E0D5F8E1
:100920008800A16E20F040700843C5F88800D8E721
:10093000FFF7AEFEA0EB0900022801D9032705E06E
:10094000DAF80000C005F3D5002F7CD04FEA070687
:10095000B8F1000F03D0A86D20F08050A865207872
:10096000C00707D0D5F88800A16B20F0030008432A
:10097000C5F888002078800707D5D5F88800E16B96
:1009800020F00C000843C5F888002078400707D500
:10099000D5F88800216C20F030000843C5F88800A5
:1009A0002078000707D5D5F88800616C20F0C000DA
:1009B0000843C5F888002078C00607D5D5F8880018
:1009C000A16C20F440700843C5F8880020788006A8
:1009D00007D5D5F88800E16C20F440600843C5F8DD
:1009E00088002088800507D5D5F88800E16D20F4BF
:1009F00040200843C5F888002088400507D5D5F871
:100A00008800216E20F440100843C5F88800207843
:100A1000400607D5D5F88800216D20F440500843E2
:100A2000C5F888002078000607D5D5F88800616DE4
:100A300020F440400843C5F888002088C00509D547
:100A4000D5F8880000E01CE0A16D20F44030084398
:100A5000C5F8880020884FF0006780044FF0806858
:100A60004FD5D5F88800E16E20F040600843C5F806
:100A70008800E06EB8423CD1E86840F48010E8603D
:100A80003FE0D5F8900010F4407015D0D4F88410F1
:100A9000814211D0D5F89000D5F8901020F4407024
:100AA00041F48031C5F89010D5F8901021F48031D0
:100AB000C5F89010C5F89000C00710D0FFF7E8FD0A
:100AC000074641F2883906E0FFF7E2FDC11B4945C0
:100AD00001D903263CE7D5F890008007F4D5D5F876
:100AE0009000D4F8841020F440700843C5F89000BA
:100AF0002EE7404505D10121201D00F0A7FE00B1E1
:100B000006462068000317D5D5F88800216F20F02D
:100B100040600843C5F88800206FB84204D1E868F7
:100B200040F48010E86007E0404505D10121201D18
:100B300000F08CFE00B106462068400317D5D5F8BA
:100B40008800616F20F040600843C5F88800606F3E
:100B5000B84204D1E86840F48010E86007E04045FE
:100B600005D10121201D00F071FE00B1064620884C
:100B700040041AD5D5F88800A16F20F040500843F2
:100B8000C5F88800A06FB0F1805F03D0B0F1005FBE
:100B900005D00AE00221201D00F058FE03E00221EA
:100BA000584600F0E9FE00B106462088000407D54B
:100BB000D5F88800E16F20F080400843C5F8880030
:100BC0002068C00307D555F8880FD4F8801020F0AE
:100BD000004008432860304600F004B8001002408E
:100BE0000070004018BCBDE8E08F00002DE9F04720
:100BF0000F46050058D0404E306800F00700B8425C
:100C000009D2306820F0070038433060306800F0C7
:100C10000700B84248D12878384CC0072CD0686803
:100C2000032811D0022812D0216898B14905002963
:100C30003ADAA16821F003010143A160FFF728FD22
:100C4000804641F2883910E021688901EFE7216888
:100C50008903ECE78907EAE7FFF71AFDA0EB080133
:100C6000494502D90320BDE8F087A068696800F013
:100C70000C00B0EB810FEFD12878800705D5A06874
:100C8000A96820F0F0000843A060306800F0070079
:100C9000B8420BD9306820F0070038433060306824
:100CA00000F00700B84201D00120DCE728784007B7
:100CB00005D5A068E96820F4E0600843A0602878C2
:100CC000000706D5A068296920F4605040EAC100F9
:100CD000A06000F03FF8A168094AC1F30311515C1C
:100CE00001F01F01C8400749086007480068BDE8D7
:100CF000F047FFF7EBBC000000200240001002406C
:100D0000643900081C000020100000200548064936
:100D100000688968054AC1F30221515C01F01F0196
:100D2000C84070471C00002000100240A439000891
:100D30000548064900688968054AC1F3C221515C2B
:100D400001F01F01C84070471C0000200010024045
:100D5000A439000870B52549002318468A68CC6874
:100D600012F00C0204F00306214C4FEA640509D08E
:100D70000C2A05D0042A32D0082A00D1284670BD9A
:100D8000012E10D10B681B0704D4D1F89430C3F3A3
:100D9000032302E00B68C3F30313164E56F8233007
:100DA000DAB10C2AEBD1C86800F00300022818D091
:100DB000032818D01846CA68CB68C2F30212C3F3DE
:100DC00006234343521CB3FBF2F2C868C0F34160F0
:100DD000401C4000B2FBF0F070BD184670BD2046CC
:100DE00070BD2046E7E72846E5E700000010024016
:100DF0000024F400743900082DE9F84304006FD092
:100E0000FE4DA86800F00C06E86800F003072078A3
:100E1000C00664D576B10C2E01D1012F0AD0A0698D
:100E2000002828687AD040F001002860FFF730FCE5
:100E300080465DE02868800702D5A0690028DED0E2
:100E4000216A2868000703D5286800F0F00004E054
:100E5000D5F89400F02202EA1010814216D9084613
:100E600000F00EFE00283BD1286840F00800286002
:100E70002868216A20F0F000084328606868E1696A
:100E800020F47F4040EA0120686016E0286840F0C6
:100E9000080028602868216A20F0F00008432860D4
:100EA0006868E16920F47F4040EA0120686026B963
:100EB000206A00F0E5FD0028D5D1FFF74BFFA968B7
:100EC000CF4AC1F30311515C01F01F01C840CD4965
:100ED0000860CD480068FFF7F9FB00287ED12EE0BE
:100EE000CAE000BFFFF7D4FBA0EB0800022876D8C9
:100EF00028688007F6D5286840F008002860286830
:100F0000216A20F0F000084328606868E16920F455
:100F10007F4040EA0120686011E0FFE720F0010017
:100F20002860FFF7B5FB804606E000BFFFF7B0FB87
:100F3000A0EB08000228DAD828688007F6D42078C9
:100F4000C00740D0082E18D00C2E01D1032F14D08A
:100F50006068B0F5803F17D0B0F5A02F286817D093
:100F600020F480302860286820F4802028606068A1
:100F7000E0B1FFF78DFB804614E02868800322D59E
:100F80006068002878D01EE0286840F48030EDE7E3
:100F900040F480202860F7E7FFF77AFBA0EB080019
:100FA0006428A4D828688003F6D50CE0FFF770FB0E
:100FB000804605E0FFF76CFBA0EB0800642896D89C
:100FC00028688003F6D4207880073BD5042E11D002
:100FD0000C2E01D1022F0DD0E06801E092E1F1E08A
:100FE000002828681ED040F480702860FFF750FB6E
:100FF00007460CE0286840050CD5E0680028C1D001
:1010000008E000BFFFF744FBC01B022893D8286804
:101010004005F7D56868217C20F0F85040EA01606F
:1010200068600FE020F480702860FFF731FB07460E
:1010300005E000BFFFF72CFBC01B0228B1D82868D1
:101040004005F7D42078000729D560690028D5F835
:10105000940012D040F00100C5F89400FFF718FB8F
:10106000074604E0FFF714FBC01B022899D8D5F807
:1010700094008007F6D512E000E120F00100C5F8E9
:101080009400FFF705FB074605E000BFFFF700FBF4
:10109000C01B022885D8D5F894008007F6D42078A4
:1010A000400766D5A86D0027C00008D4A86D40F0A1
:1010B0008050A865A86D012700F08050009053482B
:1010C0000168C90512D40168814641F4807101604C
:1010D000FFF7DEFA804605E0FFF7DAFAA0EB08003A
:1010E00002286FD8D9F80000C005F5D5A0680128FE
:1010F00016D00528D5F8900017D020F00100C5F8CB
:101100009000D5F8900020F0040000BFC5F89000D2
:10111000A06841F28839C0B1FFF7BAFA80460FE003
:10112000D5F8900040F00100F0E740F00400C5F869
:101130009000F5E7FFF7ACFAA0EB0801494541D86C
:10114000D5F890008007F5D50EE0FFF7A1FA8046AC
:1011500006E000BFFFF79CFAA0EB0801494531D833
:10116000D5F890008007F5D41FB1A86D20F080500D
:10117000A865A06A38B302280AD00C2E7ED0286851
:1011800020F080702860286810F0205F77D0AAE0F7
:10119000E868E26A00F0030191422BD1216B00F074
:1011A000700209011039914224D1626B00F4FE41B2
:1011B000B1EB022F1ED1A26B00F40031072A03D03D
:1011C000012202E09DE089E00022914212D1A18F2C
:1011D00000F4C00249084905A1F50011914209D166
:1011E00094F8401000F0C06049084906A1F1007170
:1011F00081425CD00C2E41D0286809E000100240EA
:10120000643900081C00002010000020007000401D
:1012100040017ED42868C0007BD4286820F080700C
:101220002860FFF735FA064605E000BFFFF730FA01
:10123000801B022865D828688001F7D4D4E90B0107
:101240006FF00F0202EB01110843A18F520449080D
:1012500002EB4151626B41EA0221084394F84010CD
:101260004FF07E42490802EB41610843A16B090936
:1012700040EA4140E968284A114001E049E02EE097
:101280000843E860286840F080702860E86840F013
:101290008070E860FFF7FCF9044604E0FFF7F8F916
:1012A000001B02282DD828688001F7D52FE0286878
:1012B00080012CD4286840F080702860E86840F0F5
:1012C0008070E860FFF7E4F9044604E0FFF7E0F916
:1012D000001B022815D828688001F7D517E0E868B8
:1012E00020F00300E860E8680C490840E860FFF778
:1012F000CFF9044608E000BFFFF7CAF9001B022837
:1013000002D90320BDE8F88328688001F4D40020C6
:10131000F8E70120F6E700008C809DF9FFFFEEFE64
:1013200010B5401EB0F1807F01D3012010BD4FF0F9
:10133000E02460610F21601700F0F2FE0020A06140
:1013400007202061002010BD10B5040002D0606F9E
:1013500010B107E0012010BD002084F87000204685
:1013600000F026F8242060672068016821F0010160
:101370000160204600F026FD0128ECD0606A10B123
:10138000204600F08FFC2068416821F490414160C4
:101390002068816821F02A0181602068016841F09D
:1013A000010101602046BDE8104000F0DFBC0000F4
:1013B00010B586B0044614216846FEF7BEFF1249F8
:1013C000206888421ED11148016E41F480410166B7
:1013D000016E01F480410591C16C41F00201C164CC
:1013E000C06C694600F002000590C0200090022009
:1013F00001900020029003200390072004900448ED
:10140000FFF70EF806B010BD003801400010024092
:10141000000400482DE9F8430446406F1F46164675
:101420000D4620284FD1CDB1C6B194F870000128E7
:1014300049D0012084F870004FF00008C4F87C8087
:1014400021206067FFF724F9A4F850608146A4F8D2
:101450005260A068B0F5805F03D004E00120BDE8D1
:10146000F883206928B12E465FF0000584F870806B
:1014700010E00026FAE78021204600F0EDFDB8B923
:10148000C6B116F8010B21680885B4F85200401E59
:10149000A4F85200B4F852004B464FF000020097F7
:1014A0000028E8D14FF04001204600F0D5FD30B1D2
:1014B0000320D4E735F8020BC0F30800E3E720204F
:1014C00060670020CBE70220C9E7FEE72DE9F04F77
:1014D00087B014216846FEF730FFC748C16C41F061
:1014E0001001C164C16C01F010010591C16C41F0A3
:1014F0000401C164C16C01F004010591C16C41F0AB
:101500000101C164C16C01F001010591C16C41F0A0
:101510000201C164C16C01F002010591C16C41F08E
:101520000801C164C06CDFF8D49200F00800059097
:1015300000224FF48A714846FFF7A5F8002248F2CE
:1015400004114FF09040FFF79EF800224FF2140173
:10155000AB48FFF798F8002241F28101A948FFF754
:1015600092F801225103A748FFF78DF800224FF4AB
:101570001071A548FFF787F801222021A048FFF746
:1015800082F8012211464846FFF77DF840F2151017
:10159000009001250024CDE9015469464846039492
:1015A000FEF73EFF994E6A20CDE900066946029497
:1015B0004846FEF735FF680300909548CDE90104E1
:1015C00069469148FEF72CFF3F200B27CDE9000725
:1015D000694602948C48FEF723FF03200090022006
:1015E000CDE90104032003900820049069464FF0E0
:1015F0009040FEF715FF48F204100090CDE9015429
:1016000069464FF090400394FEF70AFF08200090CF
:101610000220CDE9010469464FF09040CDE9034531
:10162000FEF7FEFE1020CDE90007694602944FF058
:101630009040FEF7F5FEE02000900220CDE9010485
:10164000032003900520049069464FF09040FEF778
:10165000E7FE0095CDE9016469466948FEF7E0FEC2
:101660000220CDE90007694602946548FEF7D8FEDE
:101670004FF234000090CDE901546946604803946C
:10168000FEF7CEFE4FF4207000900220CDE9010459
:101690000620CDE9034069464846FEF7C1FE4FF4F7
:1016A0007C4000900220CDE9010403204FF00A089D
:1016B000CDE9030869464846FEF7B2FE4FF44060A4
:1016C0004FF01209CDE900090320CDE902504FF097
:1016D000040A6946CDF810A04948FEF7A1FE4FF470
:1016E000407B0220CDF800B0CDE90104032007279C
:1016F000CDE9030769464348FEF792FE4CF60440E5
:10170000CDE90006694602943E48FEF789FE43F2A1
:1017100081000090CDE9015469463A480394FEF7F0
:101720007FFE4FF410700090CDE9015469463648B1
:101730000394FEF775FE4FF4C070CDE900066946CC
:1017400002943148FEF76CFE6802CDE90004694658
:101750004FF090400294FEF763FEBE020220009616
:10176000CDE901040320CDE9030869464FF090401C
:10177000FEF756FE02200096CDE9010403200390F7
:101780000620049069462048FEF74AFE0220009099
:10179000CDE901040320039005200490694619480F
:1017A000FEF73EFE782000900220CDE901040320E0
:1017B000CDE9030769461348FEF732FE0320CDE961
:1017C0000250CDE900B96946CDF810A00C48FEF7EB
:1017D00027FE002205211720FEF7C2FF1720FEF783
:1017E000B1FF002205212820FEF7BAFF2820FEF7CE
:1017F000A9FF07B000F00EB800100240001000482A
:1018000000040048000C00480008004800001110C7
:101810000000211030BCBDE8C08F00000948084915
:1018200001604FF4E1314160002181600C22C16010
:10183000C0E904128161C16101624162FFF784BDA8
:101840000038014084000020FEE770472DE9F04198
:10185000444C05468846E0680026810728680DD07C
:10186000E16801F00301814216D1A8B1E06869681E
:10187000C0F30210401C88420ED120E0012804D0A1
:10188000022805D0032807D108E02168890701E074
:1018900021684905002907DB01265FE021688903EB
:1018A00002D421684903F5E7E1686A686FF00F0325
:1018B00021F0730103EB021211430143E160206840
:1018C00020F080602060FEF7E3FE074605E000BFE1
:1018D000FEF7DEFEC01B022837D820680001F7D4CF
:1018E000B8F1000F18D0B8F1010F1ED0287D4FF0CD
:1018F0007E41400801EB4060A96840EA012021696F
:10190000194A114008432061206840F0806020603F
:10191000FEF7BEFE07461AE0A868E968000209095A
:1019200040EA41402169114AEBE7288A1049400802
:1019300001EB4050A96840EA012021690D4AE0E727
:10194000FEF7A6FEC01B022801D9032606E0206888
:101950000001F5D52069A969084320613046BDE83A
:10196000F081000000100240FF80FFF9FF80FDFFC2
:101970000000E0FFFF809FFF2DE9F0413D4C06464F
:101980008846E0680025810730680DD0E16801F0E5
:101990000301814216D1A8B1E0687168C0F302105A
:1019A000401C88420ED120E0012804D0022805D036
:1019B000032807D108E02168890701E0216849056B
:1019C000002907DB012551E02168890302D4216841
:1019D0004903F5E7E16872686FF00F0321F07301C6
:1019E00003EB021211430143E160206820F08050B4
:1019F0002060FEF74DFE074605E000BFFEF748FEFB
:101A0000C01B022829D820688000F7D4B8F1000F45
:101A100015D0307C4FF07E41400801EB4060B1684A
:101A200040EA01206169144A11400843606120685E
:101A300040F080502060FEF72BFE07460FE0B068B4
:101A4000F1680002090940EA414061690B4AEBE78D
:101A5000FEF71EFEC01B022801D9032506E0206800
:101A60008000F5D560697169084360612846BDE86A
:101A7000F081000000100240FF80FFF9FF80FDFFB1
:101A8000F8B51C4D06460024A86DC00002D5FEF72F
:101A9000CDFE0DE0A86D40F08050A865A86D00F067
:101AA00080500090FEF7C2FEA96D21F08051A9651B
:101AB000B0F5007F04D0802E07D94FF003040AE070
:101AC000802E08D9A02E01D804E001D1022402E022
:101AD000702E00D101240848016821F0070121433C
:101AE0000160006800F00700A04201D00120F8BDAD
:101AF0000020F8BD00100240002002400EB50F4D3E
:101B000064226846E96800F0E3FCDDE90010202962
:101B100007D00BA000F0F4FA2146E86800F0D2FCF0
:101B2000EEE7044640782178012804D00EA000BFDB
:101B300000F0E6FAF0E712A0FAE70000000000204B
:101B40000A0D436F756C64206E6F74207265636557
:101B50006976652066726F6D2074686520717565A1
:101B600075650A0D000000000A0D46726F6D205366
:101B7000656E64657232203D20256C640A0D00009C
:101B80000A0D46726F6D2053656E64657231203D9B
:101B900020256C640A0D0000064C05462946E068C5
:101BA00000F0E2FC10B104A000F0AAFA00F07CFD05
:101BB000F4E70000000000200A0D436F756C6420FC
:101BC0006E6F742073656E6420746F207468652076
:101BD0004D61696C0A0D000010B5FEF75FFD01F064
:101BE00035FD012803D0BDE8104001F023BA10BD37
:101BF00030B5B9B0442122A8FEF79FFB142133A8C9
:101C0000FEF79BFB88216846FEF797FB1020012515
:101C10002290002428956020CDE929400220282127
:101C2000CDE92C05CDE92E510721CDE930103290B8
:101C300022A8FFF7E1F80F2033900320CDE9340408
:101C40003694042133A83794FEF7D0FF68460095F8
:101C50000E94FEF7F3FD6802FEF7B4FD39B030BD17
:101C60000D48016841F4700101600C48016841F0C1
:101C700001010160002181600268094B1A40026085
:101C80008214C260026822F48022026081610249EB
:101C9000C00380390860704788ED00E00010024002
:101CA000FFFFF6EA90F82410C90706D001684A68D9
:101CB000836A22F400321A434A6090F8241089079C
:101CC00006D501684A68C36A22F480321A434A6022
:101CD00090F82410490706D501684A68036B22F47E
:101CE00080221A434A6090F82410090706D501683B
:101CF0004A68436B22F400421A434A6090F8241069
:101D0000C90606D501688A68836B22F480521A439B
:101D10008A6090F82410890606D501688A68C36B2A
:101D200022F400521A438A6090F82410490611D513
:101D300001684A68036C22F480121A434A60016CFD
:101D4000B1F5801F06D101684A68436C22F4C002D5
:101D50001A434A6090F82410090606D501684A68BB
:101D6000806C22F4002202434A607047F8B50026D6
:101D70000446C667FEF78CFC0546206800686FF0D5
:101D80007E47000708D52B4600224FF4001120465D
:101D9000009700F061F960B92068006840070AD533
:101DA0002B4600224FF480012046009700F054F9A2
:101DB00008B10320F8BD20206067A06784F8706038
:101DC0000020F8BD2DE9F0410546016880682B69C7
:101DD000EC6918436B69002723431843924A0B6848
:101DE000924C234003430B6028684168EB6821F460
:101DF0004051194341602968A869914201D02B6A7A
:101E000018438B6823F4306303438B60884B296845
:101E1000884899420DD1D0F8880010F0030006D010
:101E2000012868D0022864D0032851D165E001243C
:101E30004FE0814B99420BD1D0F8880010F00C0094
:101E400055D0042857D0082853D00C2840D154E04E
:101E50007A4B99420BD1D0F8880010F0300046D070
:101E6000102848D0202844D0302831D145E0744B88
:101E700099420BD1D0F8880010F0C00037D040282C
:101E800039D0802835D0C02822D136E06D4B994218
:101E90000ED1D0F8880010F4407028D0B0F5807FC3
:101EA00029D0B0F5007F24D0B0F5407F10D124E0D8
:101EB00091420DD1D0F8880010F4406017D0B0F5F1
:101EC000806F18D0B0F5006F13D0B0F5406F14D00C
:101ED00010245D4B00264FF40040914245D174B16F
:101EE000022C0FD0042C0FD0082C18D10FE00024A6
:101EF000EFE70224EDE70424EBE70824E9E7FEF727
:101F000005FF03E0184602E0FEF724FFA8B36A6865
:101F100002EB4201814202D8B0EB023F01D9012716
:101F20006FE0DFF828815CB1022C0CD0042C13D0B8
:101F3000082CF4D150082105401846F1000105E0B5
:101F4000FEF7E4FE0AE050084149F5E70023FEF7FA
:101F5000A7F9A0F5407150E0FEF7FCFE6A68010E9B
:101F60000302500818187141F0E7E9694FF6EF785D
:101F700081422FD1092CD2D200E042E0DFE804F008
:101F800006092005230505052600C8E7FEF7BEFE65
:101F900001E0FEF7CDFE4100D5F8040001EB500151
:101FA000B1FBF0F080B2A0F110014145B7D84FF677
:101FB000F0710140C0F3420001432868C16020E095
:101FC00024496868EAE7FEF7C5FEE4E74FF480318C
:101FD0006868E3E7092CA2D2DFE804F006091805D7
:101FE0001E05050520009AE7FEF790FE16E0FEF7B5
:101FF0009FFE13E080B2A0F1100141458FD82968FF
:10200000C8602E6638466E66BDE8F081686803EBEE
:102010005001B1FBF0F0EDE7FEF79CFE696800EBC4
:102020005100B0FBF1F0E5E700800040F369FFEFFD
:1020300000380140001002400044004000480040C9
:10204000004C0040005000400024F400FFFC0F0052
:10205000000024F40048E8012DE9F0479A461746AD
:102060000E4604464FF000094FF02008089D39E065
:10207000681C37D0FEF70CFBA0EB0A00A84222D860
:102080000DB32068016849072CD5C069C04300051D
:1020900028D421684FF4006008622068016821F4A8
:1020A000D07101602068816821F001018160C4F86D
:1020B0007480C4F87880C4F87C8000BF84F8709085
:1020C0000320BDE8F0872068016821F4D071016029
:1020D0002068816821F001018160C4F87480C4F82F
:1020E0007880EBE72068C06936EA000004D0002061
:1020F000B842BDD00020E4E70120F9E7FEE7000088
:102100000FB4054B10B503A9044A029800F028F853
:1021100010BC5DF814FB000095230008800000202F
:102120000907090E002804DB00F1E02080F8001404
:10213000704700F00F0000F1E02080F8141D704798
:1021400002E008C8121F08C1002AFAD17047704780
:10215000002001E001C1121F002AFBD170470000DE
:102160002DE9FF4F8BB09A460F460446002606E045
:1021700025280BD052460D999047641C761C207878
:102180000028F5D10FB0304600F000B90025A9466F
:1021900001227D4900E0054314F8013F203B02FA8B
:1021A00003F00842F7D120782E2817D114F8010F38
:1021B00045F004052A280ED06FF02F022078A0F1F8
:1021C000300109290AD809EB890102EB410100EB32
:1021D0000109641CF2E757F8049B641C20786C2802
:1021E0000DD004DC4C2812D06A2811D104E07428E8
:1021F0000DD07A280CD10AE045F4001507E061788B
:1022000045F48015814202D1641C05F58015641CDB
:10221000207869283ED006DC0028B3D063280BD094
:10222000642804D136E0732810D075285CD052465B
:102230000D999047761CA5E017F8040B8DF8000067
:1022400000208DF80100E846012003E057F8048BD8
:102250004FF0FF3069074FF0000501D40AE06D1C14
:102260004D450DDA8542FADB18F805100029F6D144
:1022700006E06D1C8542FCDB18F805100029F8D13A
:102280002E4404E018F8010B52460D9990476D1E3C
:10229000F8D277E000200A90C5F302504FF00A0B05
:1022A00002280CD001CFC117021E71F100020CDA16
:1022B0000023D0EB030063EB01012D2208E0FF1D9A
:1022C00027F00707F7E80201EEE72A0504D52B22DD
:1022D0008DF82420012203E0EA070FD02022F7E73F
:1022E0000DF12008089218E000200A90C5F3025072
:1022F0004FF00A0B022803D001CF00210022EFE7A4
:10230000FF1D27F00707F7E80201F7E75A460A9B87
:10231000FDF7C6FF303208F8012D50EA0102F5D171
:10232000ADEB080000F1200B680701D44FF0010964
:10233000D94502DDA9EB0B0000E000208146002515
:1023400006E009A85246405D0D9990476D1C761C29
:1023500008988542F5DB04E0302052460D999047FD
:10236000761CB9F10001A9F10109F5DC05E018F8C6
:10237000010B52460D999047761CBBF10001ABF161
:10238000010BF4DC641CFAE60928010030BCBDE84E
:10239000C08F000013B54FF6FF7301226946024853
:1023A000FFF738F800981CBD84000020EFF305808B
:1023B000002800D0012070479AB0FEF777F9FFF7A8
:1023C00017FCFFF783F8FFF729FA1AA0FFF798FE2A
:1023D0001D49D1E90101CDE9150118A81790002187
:1023E00015A800F041F8194C17491C22E060103183
:1023F0006846FDF789FF1449684600F02AF912493A
:1024000020601C222C3107A8FDF77EFF002107A8C1
:1024100000F01FF90C4960601C2248310EA8FDF73E
:1024200073FF09490EA8891C00F013F9A06000F0A1
:1024300015F8FEE70A0D4672656552544F53204C5D
:1024400061622031310A0D000039000800000020CF
:1024500001460020842900D0C81C704710B500F048
:1024600003FD002010BD00003EB504460020009092
:102470000190029020680090606801900C2000F0AC
:102480005DFBA1680028086019D0046000220421C7
:10249000206800F0E5FDA16809684860A168096846
:1024A00070B1684600F08EF80100A0680068816095
:1024B000A068006803D100BF00F046FC00203EBDCC
:1024C0000846F9E710B1806800F0ABB8802070478B
:1024D0002DE9FF410D000646029522D04FF000087D
:1024E0004446CDF80C80501C20D002B11446FFF7B2
:1024F0005DFF20270028686869461CD003AA091DD3
:1025000000F0C0FF012814D0CDF800800398D8B1A6
:1025100012494FF080500860BFF34F8FBFF36F8FA9
:1025200012E0802000902A4601990FE04FF0FF341E
:10253000DDE70097EAE72246091D00F007FF0128C2
:1025400008D04CB1402000909DE8070086E80700C5
:1025500000F006B80097F7E70020F4E704ED00E08C
:1025600003BCBDE8FC81000013B582B004000FD0AD
:1025700000200090FFF71AFF002860684FF000036A
:1025800014D06A4603A900F083FE012814D102E0AA
:10259000802004B010BD009880B109494FF08050F0
:1025A0000860BFF34F8FBFF36F8F07E0002203A9CE
:1025B00000F0BEFD012801D0FF20EAE70020E8E797
:1025C00004ED00E02DE9F04105464068C01C20F014
:1025D0000307142000F0B2FA04001FD00026286878
:1025E0002661C4E90207286800F0A8FA606088B193
:1025F0002868784300F0A2FA206040B1002002E091
:1026000061680E54401C29688142F9D806E0606870
:1026100000F09AFB204600F097FB00242046BDE81E
:10262000F08178B171B102688A420BD8891AC26808
:10263000B1FBF2F302FB131323B9B1FBF2F1826891
:102640008A4201D8802070474068002242541046D8
:1026500070477FB50D4604464169B0F9080081B165
:10266000A16971B1FFF7F4FED4E905128DE8070006
:10267000D4E900102B46226900F0BCFF039004B09F
:1026800070BDFFF7E5FE03A9CDE90001208A2B46C6
:1026900082B2D4E9001000F07DFF012801D00020B3
:1026A000EDE70398EBE7000004494FF08050086025
:1026B000BFF34F8FBFF36F8F0020704704ED00E032
:1026C0002DE9F041184C0F46054666692068001D4B
:1026D00000F0B6FA38B9206890F82C100120884034
:1026E000A1698143A161681C07D137B12168BDE8A8
:1026F000F0410E48091D00F0E7BA20683544B542A4
:102700004560216805D2A068BDE8F041091D00F0D0
:10271000C3BA6068091D00F0BFFA206B854200D281
:102720002563BDE8F0810000200000203404002073
:102730002DE9F041054600F0D3FA2E4C2069401CEB
:10274000206120682C4F10B1E06940B32DE0256076
:102750002069012829D1002606EB860007EB8000BE
:1027600000F08CFA761C072EF6D323488C3000F04C
:1027700085FA2148A03000F081FA1F48B43000F0FB
:102780007DFA1D48C83000F079FA1B48DC3000F0B3
:1027900075FA19488C3060601430A06005E020683C
:1027A000E96AC06A884200D82560E06A401CE0629D
:1027B000E96A0120A26988401043A06101EB810011
:1027C00007EB8000291D00F07FFA00F0A9FAE0690C
:1027D00000280CD02068E96AC06A884207D20749FD
:1027E0004FF080500860BFF34F8FBFF36F8FBDE88D
:1027F000F0810000200000205803002004ED00E0DC
:1028000030B4026C0B46002A0BD0C1681144C16081
:102810008468A14201D30168C16030BC1846FDF74D
:1028200073BD30BC70472DE9F041856B17460446F7
:102830000026026C82B1C7B1E068FDF765FDE16872
:10284000206C091AE1602268914202D2A168081A3C
:10285000E060022F16D017E02068A8B9A06800F049
:1028600067FF06460020A0600EE06068FDF74CFDA3
:10287000216C606808446060A168884204D32068C5
:10288000606001E005B16D1E6D1CA5633046BDE8BA
:10289000F08110B5044690F8510058B101280CD0D1
:1028A00002280FD0502080F31188BFF34F8FBFF361
:1028B0006F8FFEE7206B00F047FA2046BDE810401E
:1028C00000F042BA10BD00000F4840F6B831420790
:1028D00005D0C01D0C4A20F00700821A891A0B4A45
:1028E00000230144C2E900030839103A21F007012E
:1028F00011604B600B600B1AC0E9001393604FF03E
:1029000000405360D0607047480400206C000020F5
:10291000144E154CA6F1C8074FF08058DFF84C90C4
:1029200012E000BF00F0DCF9F068C568281D00F077
:1029300087F92069401E2061E068401EE06000F0D9
:10294000EFF92846FFF7A5FFE0680028EAD13868CC
:102950000128F9D9C9F80080BFF34F8FBFF36F8FFB
:10296000F2E70000200400202000002004ED00E039
:102970000346009829B10260C0E90F31012100F03F
:1029800093BB0060F8E72DE9F0479A46DDE909843A
:1029900081466FF00303206B03EB82021044089E14
:1029A00020F00707780707D0502080F31188BFF385
:1029B0004F8FBFF36F8FFEE7002561B10020231812
:1029C0000A5C83F834200A5C12B1401C1028F6D34C
:1029D00084F8435001E084F83450072E00D30626D3
:1029E000E662C4E91165201D00F053F904F11800F6
:1029F00000F04FF92461C6F107006462A061E5644C
:102A000084F8505052464946384600F003F9206099
:102A1000B8F1000F01D0C8F80040BDE8F087000011
:102A200030B5114900E011460A688242FBD34B6879
:102A30005C18844203D140681844486008464368E3
:102A40001C18944209D1084C103C2468A24209D0B9
:102A500052681A4442600A6812680260814200D0DB
:102A6000086030BD0460F9E76C00002010B5044632
:102A700000F036F9A06B28B15FF0000400F050F9C7
:102A8000204610BD0124F9E706484168096829B1CC
:102A90004168C968C9684968016370474FF0FF31F0
:102AA000FAE700002000002008484068401C4FF072
:102AB000500080F3118804D0BFF34F8FBFF36F8FA6
:102AC000FEE7BFF34F8FBFF36F8FFEE77400002068
:102AD0002DE9F041044600F003F994F9455004F162
:102AE000240609E0606A48B1304600F06DFE08B186
:102AF00000F09CF96D1E6DB2002DF3DC4FF0FF3637
:102B000084F8456000F00CF900F0EAF894F94450BC
:102B100004F1100709E0206948B1384600F054FE7E
:102B200008B100F083F96D1E6DB2002DF3DC84F85E
:102B30004460BDE8F04100F0F3B800002DE9F04139
:102B40000546002700F0C6F9314E306808B9FFF796
:102B5000BBFEF06805424BD1C5B3083568070ED0FF
:102B600005F00700C0F108000544680707D05020B1
:102B700080F31188BFF34F8FBFF36F8FFEE72DB344
:102B80007068854234D82248103001460C6801E054
:102B900020460C466168A94202D221680029F7D17B
:102BA00031688C4224D0076821680160606808376A
:102BB000411B10290FD96019420708D0502080F31B
:102BC0001188BFF34F8FBFF36F8FFEE710E04160B6
:102BD0006560FFF725FF61687068401A7060B26831
:102BE000904200D2B060F06801430020C4E90001C7
:102BF00000F024FE780707D0502080F31188BFF33F
:102C00004F8FBFF36F8FFEE73846BDE8F0810000BD
:102C10005C00002010B5031F4FF080741C601B1F68
:102C200021F001011960191F044B0B6014390A606F
:102C3000091F6FF0020244380A6010BDA92A00087B
:102C4000D0E9013201699A60D0E901235A604A68EB
:102C5000824201D182684A60002202610868401EF7
:102C60000860086870470000034B036003F15400DC
:102C700008608020106070470401002000F1080106
:102C80004FF0FF32C0E90112C16001610021016013
:102C9000704700210161704730B50B685A1C02D0A3
:102CA00000F1080202E0026904E022465468256847
:102CB0009D42FAD953684B6099608A6051600861FF
:102CC0000168491C016030BD42684A6093688B60AE
:102CD00093685960916008610168491C0160704700
:102CE000502080F31188BFF34F8FBFF36F8F0A49D5
:102CF0004868401C486001280CD10848006810F062
:102D0000FF0F07D0502080F31188BFF34F8FBFF320
:102D10006F8FFEE7704700007400002004ED00E0B4
:102D20000849486828B1401E486001D180F31188E5
:102D30007047502080F31188BFF34F8FBFF36F8F20
:102D4000FEE700007400002070B5002827D0144D65
:102D5000A0F108046168E868014207D1502080F3BF
:102D60001188BFF34F8FBFF36F8FFEE722683AB130
:102D7000502080F31188BFF34F8FBFF36F8FFEE7B2
:102D80008143616000F0A6F8606869680844686083
:102D90002046FFF745FEBDE8704000F04FBD70BD16
:102DA0005C0000204FF0E0200021016181610549B5
:102DB0004FF47A720968B1FBF2F1491E41610721B3
:102DC000016170471C00002010B5FDF743FA11495E
:102DD00010280ED300F1E02090F8F0030A7890421A
:102DE00007D2502080F31188BFF34F8FBFF36F8F4E
:102DF000FEE709480068896800F4E060884207D966
:102E0000502080F31188BFF34F8FBFF36F8FFEE721
:102E100010BD0000740000200CED00E002498A6A39
:102E2000026049694160704720000020014901208B
:102E3000486270472000002010B50C4650B1094987
:102E400009681831FFF728FF2046BDE8104001212E
:102E5000FFF736BC502080F31188BFF34F8FBFF3CC
:102E60006F8FFEE72000002010B586B00024039489
:102E700005AA04A903A80494FFF7F6FEDDE90301FF
:102E80000094CDE9011000230EA11048059A00F02E
:102E9000B1FB0F490028486311D0502080F31188FE
:102EA000BFF34F8FBFF36F8F4FF0FF3008630120E8
:102EB000C8614C6106B0BDE8104000F041B806B0F2
:102EC00010BD000049444C450000000011290008D5
:102ED000200000200248816B491C8163704700007C
:102EE000200000201448816B11B10121416270471C
:102EF000002141628169B1FA81F1C1F11F0101EB49
:102F000081020E4951F822306BB101EB820101F1CF
:102F100008034A6852684A609A4201D152684A607E
:102F2000D16801607047502080F31188BFF34F8F44
:102F3000BFF36F8FFEE70000200000205803002041
:102F40001CB537480168374A914207D1502080F3B9
:102F50001188BFF34F8FBFF36F8FFEE700683149D1
:102F6000491E884207D1502080F31188BFF34F8F4C
:102F7000BFF36F8FFEE72C4908780190FF2008709F
:102F800008788DF800009DF800009DF8002000F002
:102F9000F000904207D0502080F31188BFF34F8F8C
:102FA000BFF36F8FFEE79DF80000204B00F050004C
:102FB00018700720986005E09DF8002052008DF8F9
:102FC0000020401E9DF800201206F5D498600328CA
:102FD00007D0502080F31188BFF34F8FBFF36F8F5E
:102FE000FEE74FF440709860019808700C4820305C
:102FF000016841F470010160016841F070410160B5
:10300000FFF7D0FE00205860FDF7ECF80848016893
:1030100041F040410160FDF7D1F800201CBD0000E7
:1030200000ED00E071C20F4100E400E074000020F8
:1030300034EF00E010B5502080F31188BFF34F8FBC
:10304000BFF36F8F00F010FB18B104494FF08050B0
:103050000860002080F3118810BD000004ED00E03E
:10306000F8B517460E46050014D0DEB105FB06F094
:103070004830FFF763FD04000AD0002084F84600C2
:1030800004F148023B46314628460094FFF770FCA5
:103090002046F8BD502080F31188BFF34F8FBFF357
:1030A0006F8FFEE70020E3E770B50D46040025D0E2
:1030B000FFF716FED4E90F20216802FB0011A16082
:1030C0000021A163216861600A46D4E90F01401E16
:1030D00000FB0121E16021464FF0FF3001F8440F71
:1030E000487004F110008DB1FFF7C8FD04F1240011
:1030F000FFF7C4FDFFF714FE012070BD502080F3E0
:103100001188BFF34F8FBFF36F8FFEE7216900294E
:10311000F0D000F059FB0028ECD004494FF080506B
:103120000860BFF34F8FBFF36F8FE3E704ED00E05C
:103130002DE9FF4782B01D468A464FF00008040083
:1031400003D0BAF1000F08D011E0502080F31188AD
:10315000BFF34F8FBFF36F8FFEE7206C38B1502065
:1031600080F31188BFF34F8FBFF36F8FFEE7022DFF
:103170000AD1E06B012807D0502080F31188BFF3FB
:103180004F8FBFF36F8FFEE700F060FA3F4F4FF0B5
:1031900000094FF0805648B9049838B1502080F3A8
:1031A0001188BFF34F8FBFF36F8FFEE7FFF798FDD6
:1031B000A06BE16B884207D3022D05D00498D0B1F3
:1031C000B8F1000F1AD01EE02A4651462046FFF7FC
:1031D0002AFB616A19B104F1240000F0F5FA20B16C
:1031E0003E60BFF34F8FBFF36F8FFFF799FD012054
:1031F00006B0BDE8F087FFF793FD22E06846FFF7D1
:103200000DFE4FF00108FFF78BFDFFF763FEFFF7A0
:1032100067FD94F94400401C01D184F8449094F96E
:103220004500401C01D184F84590FFF779FD04A9C1
:10323000684600F075F930B12046FFF749FC00F010
:10324000FDFA0020D4E7FFF74BFDA06BE16B88424D
:1032500013D1FFF765FD04F110000499FFF7ECFDB1
:103260002046FFF735FC00F0E9FA00289ED13E60C9
:10327000BFF34F8FBFF36F8F98E7FFF751FD2046E5
:10328000FFF726FC00F0DAFA90E7000004ED00E01A
:103290002DE9F0471F4690468946040003D0B9F156
:1032A000000F08D011E0502080F31188BFF34F8F3A
:1032B000BFF36F8FFEE7206C38B1502080F3118888
:1032C000BFF34F8FBFF36F8FFEE7022F0AD1E06B82
:1032D000012807D0502080F31188BFF34F8FBFF330
:1032E0006F8FFEE7FFF770FD5020EFF3118680F33C
:1032F0001188BFF34F8FBFF36F8FA06BE16B8842D4
:1033000006D3022F04D0002086F31188BDE8F08791
:1033100094F945503A4649462046FFF784FA681C1E
:1033200004D06D1C84F845500120EDE7606A002848
:10333000FAD004F1240000F047FA0028F4D0B8F1E4
:10334000000FF1D00121C8F80010EDE72DE9F74793
:10335000002683B08A46040003D0BAF1000F08D0DB
:1033600011E0502080F31188BFF34F8FBFF36F8FB0
:10337000FEE7206C38B1502080F31188BFF34F8FE7
:10338000BFF36F8FFEE700F061F9DFF8F4804FF0D4
:1033900000094FF0805748B9059838B1502080F3A4
:1033A0001188BFF34F8FBFF36F8FFEE7FFF798FCD5
:1033B000A56BC5B151462046FFF722FA6D1EA563E5
:1033C000206950B104F1100000F0FEF928B1C8F8EE
:1033D0000070BFF34F8FBFF36F8FFFF7A1FC012089
:1033E00006B0BDE8F087059808B11EB106E0FFF70A
:1033F00097FC27E06846FFF711FD0126FFF790FCD8
:10340000FFF768FDFFF76CFC94F94400401C01D104
:1034100084F8449094F94500401C01D184F845900B
:10342000FFF77EFC05A9684600F07AF800282046E0
:103430000AD0FFF74DFB00F001FA2046FFF716FB1C
:103440000028B3D00020CBE7FFF710FB90B104F1C8
:1034500024000599FFF7F0FC2046FFF739FB00F048
:10346000EDF90028A2D1C8F80070BFF34F8FBFF369
:103470006F8F9BE72046FFF72BFB00F0DFF995E706
:1034800004ED00E02DE9F04790468946040003D0A2
:10349000B9F1000F08D011E0502080F31188BFF37C
:1034A0004F8FBFF36F8FFEE7206C38B1502080F351
:1034B0001188BFF34F8FBFF36F8FFEE7FFF784FCD8
:1034C0005020EFF3118680F31188BFF34F8FBFF3C5
:1034D0006F8FA76BF7B194F9445049462046FFF728
:1034E0008FF97F1EA763681C04D06D1C84F84450BC
:1034F000012010E020690028FAD004F1100000F04B
:1035000063F90028F4D0B8F1000FF1D00121C8F818
:103510000010EDE7002086F31188BDE8F087000079
:103520002DE9F0410C46050011D0C4B1FFF7D8FBDE
:10353000174B5A696E682068911B471C17D02F687B
:103540009B6A9F4219D0964217D8012410E0502060
:1035500080F31188BFF34F8FBFF36F8FFEE75020CA
:1035600080F31188BFF34F8FBFF36F8FFEE7002406
:10357000FFF7D6FB2046BDE8F081884205D9401A06
:1035800020602846FFF74AFCF1E700202060DCE7D6
:10359000200000202DE9FF5F8346DDE90E87994674
:1035A00016468A469000FFF7C9FA05001CD0542041
:1035B000FFF7C4FA040014D00020256384F85100FA
:1035C000CDE90240CDE900874B4632465146584688
:1035D000FFF7D9F92046FFF7ABF8012004B000F05F
:1035E00006B82846FFF7B0FB4FF0FF30F6E730BCD7
:1035F000BDE8C09FF0B585B0DDE90B640A9DA6B1BA
:10360000DCB1542700972663022684F85160002617
:1036100004AFCDE90246CDE90057FFF7B4F92046E3
:10362000FFF786F8049805B0F0BD502080F31188AC
:10363000BFF34F8FBFF36F8FFEE7502080F31188E9
:10364000BFF34F8FBFF36F8FFEE700000548C169DE
:1036500019B1806B18B1002070470120704702201B
:1036600070470000200000202DE9F0412E4C00277B
:10367000A06B40B1206A401C2062606A00B1012743
:103680003846BDE8F0816669761C666113D16068D2
:10369000006838B1502080F31188BFF34F8FBFF31B
:1036A0006F8FFEE76068A1686160A060A06A401C3F
:1036B000A062FFF7E9F9206BDFF87080864209D33A
:1036C0006068006880B16068C068C56868688642E4
:1036D0000DD220632068C06A00EB800158F82100F9
:1036E0000128CAD90127C8E74FF0FF30F1E7281DAC
:1036F000FFF7A6FAA86A18B105F11800FFF7A0FABB
:10370000E86A0121A26981401143A16100EB8001B7
:1037100008EB8100291DFFF7D7FAE86A2168C96A1A
:103720008842CDD30127CBE720000020580300209A
:1037300070B504004FF0000140D0214D286884424C
:1037400007D0502080F31188BFF34F8FBFF36F8FE6
:10375000FEE7A06C38B1401EA064636CE26A9A4236
:103760002CD040B12AE0502080F31188BFF34F8F56
:10377000BFF36F8FFEE7201DFFF762FA114A0121A8
:1037800050B9E06A00EB800352F8233023B9AB69EB
:1037900001FA00F08343AB61606CE062C0F10700A6
:1037A000A061E06AAB6981401943A96100EB800028
:1037B00002EB8000211DFFF787FA0121084670BD4A
:1037C00020000020580300202DE9F041C068C468A3
:1037D000ACB104F118000746FFF732FA154DA86B9B
:1037E0000126A0B139461448FFF76EFAE06A29684D
:1037F000C96A88421CD901206E62BDE8F081502060
:1038000080F31188BFF34F8FBFF36F8FFEE7201D4A
:10381000FFF716FAE16AAA6906FA01F01043A861F7
:1038200001EB81000449B43901EB8000211DDBE785
:103830000020E2E7200000200C0400202DE9F047E2
:103840002C4D00242746A86B38B1FFF749FAA86B26
:10385000401EA863A86B40B146E0502080F3118859
:10386000BFF34F8FBFF36F8FFEE72969224E012010
:10387000D1B3A6F1B40980463068E8B1F068C468F5
:1038800004F11800FFF7DCF9201DFFF7D9F9E06A11
:10389000AA6908FA00F11143A96100EB800109EB64
:1038A0008100211DFFF710FAE06A2968C96A884281
:1038B000E2D3C5F82480DFE70CB1FFF7E5F82C6A06
:1038C00044B14646FFF7D0FE00B16E62641EF9D1E6
:1038D00000202862686A38B1084901273807086063
:1038E000BFF34F8FBFF36F8FFFF71AFA3846BDE86B
:1038F000F0870000200000200C04002004ED00E010
:103900006401C80203000000020000000000000083
:10391000AC390008991B00080000000000000000FE
:10392000800000000000000000000000BC3900081A
:10393000FD1A0008010000000000000080000000E7
:103940000000000000000000B4390008991B0008C6
:1039500000000000000000008000000000000000E7
:10396000000000000000000000000000010203044D
:1039700006070809A0860100400D0300801A060012
:1039800000350C0040420F0080841E0000093D00FD
:1039900000127A000024F40000366E010048E801AD
:1039A000006CDC0200000000010203045468726530
:1039B00061643100546872656164320054687265F4
:1039C00061643300E4390008000000208400000036
:1039D00040210008683A0008840000207C130000A1
:1039E000502100080000000000000000000000005E
:1039F00000000000100000000100000000000000B6
:103A000000093D0000000000000000000000000070
:103A100000000000000000000000000000000000A6
:103A20000000000000000000000000000000000096
:103A30000000000000000000000000000000000086
:103A40000000000000000000000000000000000076
:103A5000000000000000000000000000AAAAAAAABE
:083A600000000000000000005E
:040000050800018965
:00000001FF
